{
  "_format": "hh-sol-artifact-1",
  "contractName": "TokenFactory",
  "sourceName": "contracts/TokenFactory.sol",
  "abi": [
    {
      "inputs": [
        {
          "internalType": "address",
          "name": "_treasury",
          "type": "address"
        }
      ],
      "stateMutability": "nonpayable",
      "type": "constructor"
    },
    {
      "anonymous": false,
      "inputs": [
        {
          "indexed": true,
          "internalType": "address",
          "name": "previousOwner",
          "type": "address"
        },
        {
          "indexed": true,
          "internalType": "address",
          "name": "newOwner",
          "type": "address"
        }
      ],
      "name": "OwnershipTransferred",
      "type": "event"
    },
    {
      "anonymous": false,
      "inputs": [
        {
          "indexed": true,
          "internalType": "address",
          "name": "tokenAddress",
          "type": "address"
        },
        {
          "indexed": true,
          "internalType": "address",
          "name": "bondingCurveAddress",
          "type": "address"
        },
        {
          "indexed": true,
          "internalType": "address",
          "name": "creator",
          "type": "address"
        },
        {
          "indexed": false,
          "internalType": "string",
          "name": "name",
          "type": "string"
        },
        {
          "indexed": false,
          "internalType": "string",
          "name": "symbol",
          "type": "string"
        },
        {
          "indexed": false,
          "internalType": "uint256",
          "name": "totalSupply",
          "type": "uint256"
        }
      ],
      "name": "TokenCreated",
      "type": "event"
    },
    {
      "inputs": [
        {
          "internalType": "string",
          "name": "name",
          "type": "string"
        },
        {
          "internalType": "string",
          "name": "symbol",
          "type": "string"
        },
        {
          "internalType": "uint256",
          "name": "totalSupply",
          "type": "uint256"
        },
        {
          "internalType": "uint256",
          "name": "basePrice",
          "type": "uint256"
        },
        {
          "internalType": "uint256",
          "name": "slope",
          "type": "uint256"
        }
      ],
      "name": "createToken",
      "outputs": [
        {
          "internalType": "address",
          "name": "tokenAddress",
          "type": "address"
        },
        {
          "internalType": "address",
          "name": "bondingCurveAddress",
          "type": "address"
        }
      ],
      "stateMutability": "nonpayable",
      "type": "function"
    },
    {
      "inputs": [
        {
          "internalType": "address",
          "name": "tokenAddress",
          "type": "address"
        }
      ],
      "name": "getTokenInfo",
      "outputs": [
        {
          "components": [
            {
              "internalType": "address",
              "name": "tokenAddress",
              "type": "address"
            },
            {
              "internalType": "address",
              "name": "bondingCurveAddress",
              "type": "address"
            },
            {
              "internalType": "address",
              "name": "creator",
              "type": "address"
            },
            {
              "internalType": "uint256",
              "name": "createdAt",
              "type": "uint256"
            }
          ],
          "internalType": "struct TokenFactory.TokenInfo",
          "name": "",
          "type": "tuple"
        }
      ],
      "stateMutability": "view",
      "type": "function"
    },
    {
      "inputs": [],
      "name": "owner",
      "outputs": [
        {
          "internalType": "address",
          "name": "",
          "type": "address"
        }
      ],
      "stateMutability": "view",
      "type": "function"
    },
    {
      "inputs": [],
      "name": "protocolFeeRate",
      "outputs": [
        {
          "internalType": "uint256",
          "name": "",
          "type": "uint256"
        }
      ],
      "stateMutability": "view",
      "type": "function"
    },
    {
      "inputs": [],
      "name": "renounceOwnership",
      "outputs": [],
      "stateMutability": "nonpayable",
      "type": "function"
    },
    {
      "inputs": [
        {
          "internalType": "uint256",
          "name": "_protocolFeeRate",
          "type": "uint256"
        }
      ],
      "name": "setProtocolFeeRate",
      "outputs": [],
      "stateMutability": "nonpayable",
      "type": "function"
    },
    {
      "inputs": [
        {
          "internalType": "address",
          "name": "_treasury",
          "type": "address"
        }
      ],
      "name": "setTreasury",
      "outputs": [],
      "stateMutability": "nonpayable",
      "type": "function"
    },
    {
      "inputs": [
        {
          "internalType": "address",
          "name": "",
          "type": "address"
        }
      ],
      "name": "tokens",
      "outputs": [
        {
          "internalType": "address",
          "name": "tokenAddress",
          "type": "address"
        },
        {
          "internalType": "address",
          "name": "bondingCurveAddress",
          "type": "address"
        },
        {
          "internalType": "address",
          "name": "creator",
          "type": "address"
        },
        {
          "internalType": "uint256",
          "name": "createdAt",
          "type": "uint256"
        }
      ],
      "stateMutability": "view",
      "type": "function"
    },
    {
      "inputs": [
        {
          "internalType": "address",
          "name": "newOwner",
          "type": "address"
        }
      ],
      "name": "transferOwnership",
      "outputs": [],
      "stateMutability": "nonpayable",
      "type": "function"
    },
    {
      "inputs": [],
      "name": "treasury",
      "outputs": [
        {
          "internalType": "address",
          "name": "",
          "type": "address"
        }
      ],
      "stateMutability": "view",
      "type": "function"
    },
    {
      "inputs": [
        {
          "internalType": "string",
          "name": "",
          "type": "string"
        }
      ],
      "name": "usedSymbols",
      "outputs": [
        {
          "internalType": "bool",
          "name": "",
          "type": "bool"
        }
      ],
      "stateMutability": "view",
      "type": "function"
    }
  ],
  "bytecode": "0x6080604052606460035534801561001557600080fd5b506040516136ab3803806136ab833981016040819052610034916100b7565b61003d33610067565b600480546001600160a01b0319166001600160a01b03831617905561006133610067565b506100e7565b600080546001600160a01b038381166001600160a01b0319831681178455604051919092169283917f8be0079c531659141344cd1fd0a4f28419497f9722a3daafe3b4186f6b6457e09190a35050565b6000602082840312156100c957600080fd5b81516001600160a01b03811681146100e057600080fd5b9392505050565b6135b5806100f66000396000f3fe60806040523480156200001157600080fd5b5060043610620000b75760003560e01c8063b13aa2d6116200007a578063b13aa2d614620001e8578063bdace7df14620001ff578063e48603391462000241578063f0d02ec314620002c1578063f0f4426014620002f9578063f2fde38b146200031057600080fd5b80631f69565f14620000bc57806358f85880146200018457806361d027b3146200019d578063715018a614620001ca5780638da5cb5b14620001d6575b600080fd5b6200013f620000cd366004620009bd565b60408051608080820183526000808352602080840182905283850182905260609384018290526001600160a01b03958616825260018082529185902085519384018652805487168452918201548616908301526002810154909416928101929092526003909201549181019190915290565b6040805182516001600160a01b039081168252602080850151821690830152838301511691810191909152606091820151918101919091526080015b60405180910390f35b6200018e60035481565b6040519081526020016200017b565b600454620001b1906001600160a01b031681565b6040516001600160a01b0390911681526020016200017b565b620001d462000327565b005b6000546001600160a01b0316620001b1565b620001d4620001f9366004620009ef565b6200033f565b620002306200021036600462000ab4565b805160208183018101805160028252928201919093012091525460ff1681565b60405190151581526020016200017b565b6200028b62000252366004620009bd565b600160208190526000918252604090912080549181015460028201546003909201546001600160a01b0393841693918216929091169084565b6040516200017b94939291906001600160a01b039485168152928416602084015292166040820152606081019190915260800190565b620002d8620002d236600462000af5565b620003b2565b604080516001600160a01b039384168152929091166020830152016200017b565b620001d46200030a366004620009bd565b620007f2565b620001d462000321366004620009bd565b62000876565b62000331620008f5565b6200033d600062000951565b565b62000349620008f5565b6103e8811115620003ad5760405162461bcd60e51b815260206004820152602360248201527f50726f746f636f6c2066656520726174652063616e6e6f74206578636565642060448201526231302560e81b60648201526084015b60405180910390fd5b600355565b6000806000875111620003ff5760405162461bcd60e51b81526020600482015260146024820152734e616d652063616e6e6f7420626520656d70747960601b6044820152606401620003a4565b60008651116200044b5760405162461bcd60e51b815260206004820152601660248201527553796d626f6c2063616e6e6f7420626520656d70747960501b6044820152606401620003a4565b6002866040516200045d919062000ba1565b9081526040519081900360200190205460ff1615620004b75760405162461bcd60e51b815260206004820152601560248201527453796d626f6c20616c72656164792065786973747360581b6044820152606401620003a4565b60008511620005155760405162461bcd60e51b815260206004820152602360248201527f546f74616c20737570706c79206d75737420626520677265617465722074686160448201526206e20360ec1b6064820152608401620003a4565b60008411620005715760405162461bcd60e51b815260206004820152602160248201527f42617365207072696365206d7573742062652067726561746572207468616e206044820152600360fc1b6064820152608401620003a4565b60008311620005c35760405162461bcd60e51b815260206004820152601c60248201527f536c6f7065206d7573742062652067726561746572207468616e2030000000006044820152606401620003a4565b6001600287604051620005d7919062000ba1565b908152602001604051809103902060006101000a81548160ff0219169083151502179055506000878787306040516200061090620009a1565b6200061f949392919062000bed565b604051809103906000f0801580156200063c573d6000803e3d6000fd5b5090508092506000838686600354600460009054906101000a90046001600160a01b03166040516200066e90620009af565b6001600160a01b039586168152602081019490945260408401929092526060830152909116608082015260a001604051809103906000f080158015620006b8573d6000803e3d6000fd5b5060405163f2fde38b60e01b81526001600160a01b0380831660048301529194508492509083169063f2fde38b90602401600060405180830381600087803b1580156200070457600080fd5b505af115801562000719573d6000803e3d6000fd5b5050604080516080810182526001600160a01b03808916808352888216602080850182815233868801818152426060890190815260008781526001958690528a9020985189549089166001600160a01b0319918216178a55935194890180549589169585169590951790945551600288018054919097169216919091179094555160039094019390935592519094509092507f7a7058611603c7ca91cacdca0ad54685e83095e43aee6eeb1639c8148dd0a26590620007de908e908e908e9062000c38565b60405180910390a450509550959350505050565b620007fc620008f5565b6001600160a01b038116620008545760405162461bcd60e51b815260206004820152601f60248201527f54726561737572792063616e6e6f74206265207a65726f2061646472657373006044820152606401620003a4565b600480546001600160a01b0319166001600160a01b0392909216919091179055565b62000880620008f5565b6001600160a01b038116620008e75760405162461bcd60e51b815260206004820152602660248201527f4f776e61626c653a206e6577206f776e657220697320746865207a65726f206160448201526564647265737360d01b6064820152608401620003a4565b620008f28162000951565b50565b6000546001600160a01b031633146200033d5760405162461bcd60e51b815260206004820181905260248201527f4f776e61626c653a2063616c6c6572206973206e6f7420746865206f776e65726044820152606401620003a4565b600080546001600160a01b038381166001600160a01b0319831681178455604051919092169283917f8be0079c531659141344cd1fd0a4f28419497f9722a3daafe3b4186f6b6457e09190a35050565b6115ce8062000c7383390190565b61133f806200224183390190565b600060208284031215620009d057600080fd5b81356001600160a01b0381168114620009e857600080fd5b9392505050565b60006020828403121562000a0257600080fd5b5035919050565b634e487b7160e01b600052604160045260246000fd5b600082601f83011262000a3157600080fd5b813567ffffffffffffffff8082111562000a4f5762000a4f62000a09565b604051601f8301601f19908116603f0116810190828211818310171562000a7a5762000a7a62000a09565b8160405283815286602085880101111562000a9457600080fd5b836020870160208301376000602085830101528094505050505092915050565b60006020828403121562000ac757600080fd5b813567ffffffffffffffff81111562000adf57600080fd5b62000aed8482850162000a1f565b949350505050565b600080600080600060a0868803121562000b0e57600080fd5b853567ffffffffffffffff8082111562000b2757600080fd5b62000b3589838a0162000a1f565b9650602088013591508082111562000b4c57600080fd5b5062000b5b8882890162000a1f565b959895975050505060408401359360608101359360809091013592509050565b60005b8381101562000b9857818101518382015260200162000b7e565b50506000910152565b6000825162000bb581846020870162000b7b565b9190910192915050565b6000815180845262000bd981602086016020860162000b7b565b601f01601f19169290920160200192915050565b60808152600062000c02608083018762000bbf565b828103602084015262000c16818762000bbf565b604084019590955250506001600160a01b039190911660609091015292915050565b60608152600062000c4d606083018662000bbf565b828103602084015262000c61818662000bbf565b91505082604083015294935050505056fe60806040526005805460ff60a01b191690553480156200001e57600080fd5b50604051620015ce380380620015ce833981016040819052620000419162000407565b838360036200005183826200052c565b5060046200006082826200052c565b5050506200007d620000776200015d60201b60201c565b62000161565b6b033b2e3c9fd0803ce8000000821115620000df5760405162461bcd60e51b815260206004820152601c60248201527f546f74616c20737570706c792065786365656473206d6178696d756d0000000060448201526064015b60405180910390fd5b6a52b7d2dcc80cd2e40000008210156200013c5760405162461bcd60e51b815260206004820152601a60248201527f546f74616c20737570706c792062656c6f77206d696e696d756d0000000000006044820152606401620000d6565b620001488183620001b3565b620001538162000161565b5050505062000620565b3390565b600580546001600160a01b038381166001600160a01b0319831681179093556040519116919082907f8be0079c531659141344cd1fd0a4f28419497f9722a3daafe3b4186f6b6457e090600090a35050565b6001600160a01b0382166200020b5760405162461bcd60e51b815260206004820152601f60248201527f45524332303a206d696e7420746f20746865207a65726f2061646472657373006044820152606401620000d6565b620002196000838362000284565b80600260008282546200022d9190620005f8565b90915550506001600160a01b038216600081815260208181526040808320805486019055518481527fddf252ad1be2c89b69c2b068fc378daa952ba7f163c4a11628f55a4df523b3ef910160405180910390a35050565b6001600160a01b0383161580620002a257506001600160a01b038216155b15620002ad57505050565b600554600160a01b900460ff1680620002d357506006546001600160a01b038481169116145b80620002ec57506006546001600160a01b038381169116145b6200033a5760405162461bcd60e51b815260206004820152601360248201527f54726164696e67206e6f7420656e61626c6564000000000000000000000000006044820152606401620000d6565b505050565b634e487b7160e01b600052604160045260246000fd5b600082601f8301126200036757600080fd5b81516001600160401b03808211156200038457620003846200033f565b604051601f8301601f19908116603f01168101908282118183101715620003af57620003af6200033f565b8160405283815260209250866020858801011115620003cd57600080fd5b600091505b83821015620003f15785820183015181830184015290820190620003d2565b6000602085830101528094505050505092915050565b600080600080608085870312156200041e57600080fd5b84516001600160401b03808211156200043657600080fd5b620004448883890162000355565b955060208701519150808211156200045b57600080fd5b506200046a8782880162000355565b60408701516060880151919550935090506001600160a01b03811681146200049157600080fd5b939692955090935050565b600181811c90821680620004b157607f821691505b602082108103620004d257634e487b7160e01b600052602260045260246000fd5b50919050565b601f8211156200033a576000816000526020600020601f850160051c81016020861015620005035750805b601f850160051c820191505b8181101562000524578281556001016200050f565b505050505050565b81516001600160401b038111156200054857620005486200033f565b62000560816200055984546200049c565b84620004d8565b602080601f8311600181146200059857600084156200057f5750858301515b600019600386901b1c1916600185901b17855562000524565b600085815260208120601f198616915b82811015620005c957888601518255948401946001909101908401620005a8565b5085821015620005e85787850151600019600388901b60f8161c191681555b5050505050600190811b01905550565b808201808211156200061a57634e487b7160e01b600052601160045260246000fd5b92915050565b610f9e80620006306000396000f3fe608060405234801561001057600080fd5b50600436106101425760003560e01c80634ada218b116100b857806395d89b411161007c57806395d89b41146102a1578063a457c2d7146102a9578063a9059cbb146102bc578063dd62ed3e146102cf578063eff1d50e146102e2578063f2fde38b146102f557600080fd5b80634ada218b1461022f57806370a0823114610243578063715018a61461026c5780638a8c523c146102745780638da5cb5b1461027c57600080fd5b8063313ce5671161010a578063313ce567146101bf57806332cb6b0c146101ce57806339509351146101e157806340c10f19146101f457806342966c681461020957806343ff1fb81461021c57600080fd5b806306fdde0314610147578063095ea7b31461016557806318160ddd1461018857806323b872dd1461019a5780632ff2e9dc146101ad575b600080fd5b61014f610308565b60405161015c9190610dce565b60405180910390f35b610178610173366004610e39565b61039a565b604051901515815260200161015c565b6002545b60405190815260200161015c565b6101786101a8366004610e63565b6103b4565b61018c6a52b7d2dcc80cd2e400000081565b6040516012815260200161015c565b61018c6b033b2e3c9fd0803ce800000081565b6101786101ef366004610e39565b6103d8565b610207610202366004610e39565b6103fa565b005b610207610217366004610e9f565b610484565b61020761022a366004610eb8565b610491565b60055461017890600160a01b900460ff1681565b61018c610251366004610eb8565b6001600160a01b031660009081526020819052604090205490565b610207610545565b610207610559565b6005546001600160a01b03165b6040516001600160a01b03909116815260200161015c565b61014f6105ef565b6101786102b7366004610e39565b6105fe565b6101786102ca366004610e39565b610679565b61018c6102dd366004610eda565b610687565b600654610289906001600160a01b031681565b610207610303366004610eb8565b6106b2565b60606003805461031790610f0d565b80601f016020809104026020016040519081016040528092919081815260200182805461034390610f0d565b80156103905780601f1061036557610100808354040283529160200191610390565b820191906000526020600020905b81548152906001019060200180831161037357829003601f168201915b5050505050905090565b6000336103a8818585610728565b60019150505b92915050565b6000336103c285828561084d565b6103cd8585856108c7565b506001949350505050565b6000336103a88185856103eb8383610687565b6103f59190610f47565b610728565b610402610a76565b6b033b2e3c9fd0803ce80000008161041960025490565b6104239190610f47565b11156104765760405162461bcd60e51b815260206004820152601c60248201527f4d696e7420776f756c6420657863656564206d617820737570706c790000000060448201526064015b60405180910390fd5b6104808282610ad0565b5050565b61048e3382610b9b565b50565b610499610a76565b6001600160a01b0381166104fb5760405162461bcd60e51b8152602060048201526024808201527f426f6e64696e672063757276652063616e6e6f74206265207a65726f206164646044820152637265737360e01b606482015260840161046d565b600680546001600160a01b0319166001600160a01b0383169081179091556040517f9727cfa482a12f4e6e53820c476bc0cd8214e4ed5784a846ad9832ad035f8a5590600090a250565b61054d610a76565b6105576000610cd6565b565b610561610a76565b6006546001600160a01b03166105b15760405162461bcd60e51b8152602060048201526015602482015274109bdb991a5b99c818dd5c9d99481b9bdd081cd95d605a1b604482015260640161046d565b6005805460ff60a01b1916600160a01b1790556040517f799663458a5ef2936f7fa0c99b3336c69c25890f82974f04e811e5bb359186c790600090a1565b60606004805461031790610f0d565b6000338161060c8286610687565b90508381101561066c5760405162461bcd60e51b815260206004820152602560248201527f45524332303a2064656372656173656420616c6c6f77616e63652062656c6f77604482015264207a65726f60d81b606482015260840161046d565b6103cd8286868403610728565b6000336103a88185856108c7565b6001600160a01b03918216600090815260016020908152604080832093909416825291909152205490565b6106ba610a76565b6001600160a01b03811661071f5760405162461bcd60e51b815260206004820152602660248201527f4f776e61626c653a206e6577206f776e657220697320746865207a65726f206160448201526564647265737360d01b606482015260840161046d565b61048e81610cd6565b6001600160a01b03831661078a5760405162461bcd60e51b8152602060048201526024808201527f45524332303a20617070726f76652066726f6d20746865207a65726f206164646044820152637265737360e01b606482015260840161046d565b6001600160a01b0382166107eb5760405162461bcd60e51b815260206004820152602260248201527f45524332303a20617070726f766520746f20746865207a65726f206164647265604482015261737360f01b606482015260840161046d565b6001600160a01b0383811660008181526001602090815260408083209487168084529482529182902085905590518481527f8c5be1e5ebec7d5bd14f71427d1e84f3dd0314c0f7b2291e5b200ac8c7c3b92591015b60405180910390a3505050565b60006108598484610687565b905060001981146108c157818110156108b45760405162461bcd60e51b815260206004820152601d60248201527f45524332303a20696e73756666696369656e7420616c6c6f77616e6365000000604482015260640161046d565b6108c18484848403610728565b50505050565b6001600160a01b03831661092b5760405162461bcd60e51b815260206004820152602560248201527f45524332303a207472616e736665722066726f6d20746865207a65726f206164604482015264647265737360d81b606482015260840161046d565b6001600160a01b03821661098d5760405162461bcd60e51b815260206004820152602360248201527f45524332303a207472616e7366657220746f20746865207a65726f206164647260448201526265737360e81b606482015260840161046d565b610998838383610d28565b6001600160a01b03831660009081526020819052604090205481811015610a105760405162461bcd60e51b815260206004820152602660248201527f45524332303a207472616e7366657220616d6f756e7420657863656564732062604482015265616c616e636560d01b606482015260840161046d565b6001600160a01b03848116600081815260208181526040808320878703905593871680835291849020805487019055925185815290927fddf252ad1be2c89b69c2b068fc378daa952ba7f163c4a11628f55a4df523b3ef910160405180910390a36108c1565b6005546001600160a01b031633146105575760405162461bcd60e51b815260206004820181905260248201527f4f776e61626c653a2063616c6c6572206973206e6f7420746865206f776e6572604482015260640161046d565b6001600160a01b038216610b265760405162461bcd60e51b815260206004820152601f60248201527f45524332303a206d696e7420746f20746865207a65726f206164647265737300604482015260640161046d565b610b3260008383610d28565b8060026000828254610b449190610f47565b90915550506001600160a01b038216600081815260208181526040808320805486019055518481527fddf252ad1be2c89b69c2b068fc378daa952ba7f163c4a11628f55a4df523b3ef910160405180910390a35050565b6001600160a01b038216610bfb5760405162461bcd60e51b815260206004820152602160248201527f45524332303a206275726e2066726f6d20746865207a65726f206164647265736044820152607360f81b606482015260840161046d565b610c0782600083610d28565b6001600160a01b03821660009081526020819052604090205481811015610c7b5760405162461bcd60e51b815260206004820152602260248201527f45524332303a206275726e20616d6f756e7420657863656564732062616c616e604482015261636560f01b606482015260840161046d565b6001600160a01b0383166000818152602081815260408083208686039055600280548790039055518581529192917fddf252ad1be2c89b69c2b068fc378daa952ba7f163c4a11628f55a4df523b3ef9101610840565b505050565b600580546001600160a01b038381166001600160a01b0319831681179093556040519116919082907f8be0079c531659141344cd1fd0a4f28419497f9722a3daafe3b4186f6b6457e090600090a35050565b6001600160a01b0383161580610d4557506001600160a01b038216155b15610d4f57505050565b600554600160a01b900460ff1680610d7457506006546001600160a01b038481169116145b80610d8c57506006546001600160a01b038381169116145b610cd15760405162461bcd60e51b8152602060048201526013602482015272151c98591a5b99c81b9bdd08195b98589b1959606a1b604482015260640161046d565b60006020808352835180602085015260005b81811015610dfc57858101830151858201604001528201610de0565b506000604082860101526040601f19601f8301168501019250505092915050565b80356001600160a01b0381168114610e3457600080fd5b919050565b60008060408385031215610e4c57600080fd5b610e5583610e1d565b946020939093013593505050565b600080600060608486031215610e7857600080fd5b610e8184610e1d565b9250610e8f60208501610e1d565b9150604084013590509250925092565b600060208284031215610eb157600080fd5b5035919050565b600060208284031215610eca57600080fd5b610ed382610e1d565b9392505050565b60008060408385031215610eed57600080fd5b610ef683610e1d565b9150610f0460208401610e1d565b90509250929050565b600181811c90821680610f2157607f821691505b602082108103610f4157634e487b7160e01b600052602260045260246000fd5b50919050565b808201808211156103ae57634e487b7160e01b600052601160045260246000fdfea264697066735822122021fab01f0c58c59e677e79a0a52c94cb30ce5be66012e29fc33fc455f498dcb164736f6c634300081800336101206040526004805460ff191690553480156200001c57600080fd5b506040516200133f3803806200133f8339810160408190526200003f91620000f4565b6200004a3362000087565b600180556001600160a01b0380861660805260c085905260e0849052610100839052811660a0526200007c3362000087565b505050505062000149565b600080546001600160a01b038381166001600160a01b0319831681178455604051919092169283917f8be0079c531659141344cd1fd0a4f28419497f9722a3daafe3b4186f6b6457e09190a35050565b80516001600160a01b0381168114620000ef57600080fd5b919050565b600080600080600060a086880312156200010d57600080fd5b6200011886620000d7565b94506020860151935060408601519250606086015191506200013d60808701620000d7565b90509295509295909350565b60805160a05160c05160e0516101005161115d620001e260003960008181610200015281816106e30152610c2c0152600081816102b50152610e640152600081816103480152610ea00152600081816102340152818161082b0152610d400152600081816103ce0152818161054101528181610774015281816108f4015281816109b301528181610b600152610cb7015261115d6000f3fe6080604052600436106101395760003560e01c80638d8f2adb116100ab578063c7876ea41161006f578063c7876ea414610336578063d0febe4c1461036a578063e086e5ec14610372578063eb91d37e14610387578063f2fde38b1461039c578063fc0c546a146103bc57600080fd5b80638d8f2adb146102d75780638da5cb5b146102ec5780639106d7ba1461030a578063ba730e531461018f578063c5c4744c1461032057600080fd5b806353e23e2e116100fd57806353e23e2e146101c457806358f85880146101ee57806361d027b3146102225780636c11bcd31461026e578063715018a61461028e57806383caf275146102a357600080fd5b80630694db1e14610145578063082392101461015c57806308d4db141461018f5780630fa442121461018f5780631031e36e146101af57600080fd5b3661014057005b600080fd5b34801561015157600080fd5b5061015a6103f0565b005b34801561016857600080fd5b5061017c610177366004610fec565b61042d565b6040519081526020015b60405180910390f35b34801561019b57600080fd5b5061017c6101aa366004610fec565b61045e565b3480156101bb57600080fd5b5061015a61047e565b3480156101d057600080fd5b506004546101de9060ff1681565b6040519015158152602001610186565b3480156101fa57600080fd5b5061017c7f000000000000000000000000000000000000000000000000000000000000000081565b34801561022e57600080fd5b506102567f000000000000000000000000000000000000000000000000000000000000000081565b6040516001600160a01b039091168152602001610186565b34801561027a57600080fd5b5061015a610289366004610fec565b6104be565b34801561029a57600080fd5b5061015a6108c0565b3480156102af57600080fd5b5061017c7f000000000000000000000000000000000000000000000000000000000000000081565b3480156102e357600080fd5b5061015a6108d4565b3480156102f857600080fd5b506000546001600160a01b0316610256565b34801561031657600080fd5b5061017c60025481565b34801561032c57600080fd5b5061017c60035481565b34801561034257600080fd5b5061017c7f000000000000000000000000000000000000000000000000000000000000000081565b61015a610a67565b34801561037e57600080fd5b5061015a610dd3565b34801561039357600080fd5b5061017c610e57565b3480156103a857600080fd5b5061015a6103b7366004611005565b610ec9565b3480156103c857600080fd5b506102567f000000000000000000000000000000000000000000000000000000000000000081565b6103f8610f42565b6004805460ff191690556040517f0c855aee6ba0b54704edf9fa3d2172dbae0a1d765e86020a8f9918fdac6b25d790600090a1565b600080610438610e57565b90508061044d84670de0b6b3a7640000611044565b6104579190611061565b9392505050565b600080610469610e57565b9050670de0b6b3a764000061044d8285611044565b610486610f42565b6004805460ff191660011790556040517f02b874a66f7edefaaca8e06ecdb0825247542b983cc7c499a3d7f1bb34e7272890600090a1565b60045460ff161561050a5760405162461bcd60e51b8152602060048201526011602482015270151c98591a5b99c81a5cc81c185d5cd959607a1b60448201526064015b60405180910390fd5b6000811161052a5760405162461bcd60e51b815260040161050190611083565b6040516370a0823160e01b815233600482015281907f00000000000000000000000000000000000000000000000000000000000000006001600160a01b0316906370a0823190602401602060405180830381865afa158015610590573d6000803e3d6000fd5b505050506040513d601f19601f820116820180604052508101906105b491906110c6565b10156106025760405162461bcd60e51b815260206004820152601a60248201527f496e73756666696369656e7420746f6b656e2062616c616e63650000000000006044820152606401610501565b600061060c610e57565b90506000670de0b6b3a76400006106238385611044565b61062d9190611061565b9050600081116106895760405162461bcd60e51b815260206004820152602160248201527f45544820616d6f756e74206d7573742062652067726561746572207468616e206044820152600360fc1b6064820152608401610501565b804710156106d95760405162461bcd60e51b815260206004820152601860248201527f496e73756666696369656e74204554482062616c616e636500000000000000006044820152606401610501565b60006127106107087f000000000000000000000000000000000000000000000000000000000000000084611044565b6107129190611061565b9050600061072082846110df565b9050846002600082825461073491906110df565b92505081905550806003600082825461074d91906110df565b90915550506040516323b872dd60e01b8152336004820152306024820152604481018690527f00000000000000000000000000000000000000000000000000000000000000006001600160a01b0316906323b872dd906064016020604051808303816000875af11580156107c5573d6000803e3d6000fd5b505050506040513d601f19601f820116820180604052508101906107e991906110f2565b50604051339082156108fc029083906000818181858888f19350505050158015610817573d6000803e3d6000fd5b508115610876576040516001600160a01b037f0000000000000000000000000000000000000000000000000000000000000000169083156108fc029084906000818181858888f19350505050158015610874573d6000803e3d6000fd5b505b604080518681526020810185905290810185905233907f6db63bebf1e6540277744df32846ebdb98385b1a73f2d5de49b28348add63f509060600160405180910390a25050505050565b6108c8610f42565b6108d26000610f9c565b565b6108dc610f42565b6040516370a0823160e01b81523060048201526000907f00000000000000000000000000000000000000000000000000000000000000006001600160a01b0316906370a0823190602401602060405180830381865afa158015610943573d6000803e3d6000fd5b505050506040513d601f19601f8201168201806040525081019061096791906110c6565b9050600081116109b15760405162461bcd60e51b81526020600482015260156024820152744e6f20746f6b656e7320746f20776974686472617760581b6044820152606401610501565b7f00000000000000000000000000000000000000000000000000000000000000006001600160a01b031663a9059cbb6109f26000546001600160a01b031690565b6040516001600160e01b031960e084901b1681526001600160a01b039091166004820152602481018490526044016020604051808303816000875af1158015610a3f573d6000803e3d6000fd5b505050506040513d601f19601f82011682018060405250810190610a6391906110f2565b5050565b60045460ff1615610aae5760405162461bcd60e51b8152602060048201526011602482015270151c98591a5b99c81a5cc81c185d5cd959607a1b6044820152606401610501565b60003411610afe5760405162461bcd60e51b815260206004820152601b60248201527f4d7573742073656e642045544820746f2062757920746f6b656e7300000000006044820152606401610501565b6000610b08610e57565b9050600081610b1f34670de0b6b3a7640000611044565b610b299190611061565b905060008111610b4b5760405162461bcd60e51b815260040161050190611083565b6040516370a0823160e01b81523060048201527f00000000000000000000000000000000000000000000000000000000000000006001600160a01b0316906370a0823190602401602060405180830381865afa158015610baf573d6000803e3d6000fd5b505050506040513d601f19601f82011682018060405250810190610bd391906110c6565b811115610c225760405162461bcd60e51b815260206004820152601960248201527f496e73756666696369656e7420746f6b656e20737570706c79000000000000006044820152606401610501565b6000612710610c517f000000000000000000000000000000000000000000000000000000000000000034611044565b610c5b9190611061565b90506000610c6982346110df565b90508260026000828254610c7d9190611114565b925050819055508060036000828254610c969190611114565b909155505060405163a9059cbb60e01b8152336004820152602481018490527f00000000000000000000000000000000000000000000000000000000000000006001600160a01b03169063a9059cbb906044016020604051808303816000875af1158015610d08573d6000803e3d6000fd5b505050506040513d601f19601f82011682018060405250810190610d2c91906110f2565b508115610d8b576040516001600160a01b037f0000000000000000000000000000000000000000000000000000000000000000169083156108fc029084906000818181858888f19350505050158015610d89573d6000803e3d6000fd5b505b6040805184815234602082015290810185905233907f22f6af6e13430e3e7b6418d01e6a48c1fbce5e8cb1698901fc95134b4b1c58ad9060600160405180910390a250505050565b610ddb610f42565b4780610e1e5760405162461bcd60e51b81526020600482015260126024820152714e6f2045544820746f20776974686472617760701b6044820152606401610501565b600080546040516001600160a01b039091169183156108fc02918491818181858888f19350505050158015610a63573d6000803e3d6000fd5b6000670de0b6b3a76400007f0000000000000000000000000000000000000000000000000000000000000000600254610e909190611044565b610e9a9190611061565b610ec4907f0000000000000000000000000000000000000000000000000000000000000000611114565b905090565b610ed1610f42565b6001600160a01b038116610f365760405162461bcd60e51b815260206004820152602660248201527f4f776e61626c653a206e6577206f776e657220697320746865207a65726f206160448201526564647265737360d01b6064820152608401610501565b610f3f81610f9c565b50565b6000546001600160a01b031633146108d25760405162461bcd60e51b815260206004820181905260248201527f4f776e61626c653a2063616c6c6572206973206e6f7420746865206f776e65726044820152606401610501565b600080546001600160a01b038381166001600160a01b0319831681178455604051919092169283917f8be0079c531659141344cd1fd0a4f28419497f9722a3daafe3b4186f6b6457e09190a35050565b600060208284031215610ffe57600080fd5b5035919050565b60006020828403121561101757600080fd5b81356001600160a01b038116811461045757600080fd5b634e487b7160e01b600052601160045260246000fd5b808202811582820484141761105b5761105b61102e565b92915050565b60008261107e57634e487b7160e01b600052601260045260246000fd5b500490565b60208082526023908201527f546f6b656e20616d6f756e74206d75737420626520677265617465722074686160408201526206e20360ec1b606082015260800190565b6000602082840312156110d857600080fd5b5051919050565b8181038181111561105b5761105b61102e565b60006020828403121561110457600080fd5b8151801515811461045757600080fd5b8082018082111561105b5761105b61102e56fea264697066735822122049eb6105394780e77be957f80aa0bcc1ec40deaba8eeed6359f16389a6606a6d64736f6c63430008180033a2646970667358221220649eb00f2ff95183212867472a1086d9c5e4901bf82c3144b7e038408cd1a1ce64736f6c63430008180033",
  "linkReferences": {},
  "deployedLinkReferences": {}
}