{
  "_format": "hh-sol-artifact-1",
  "contractName": "BlazeToken",
  "sourceName": "contracts/BlazeToken.sol",
  "abi": [
    {
      "inputs": [
        {
          "internalType": "string",
          "name": "name",
          "type": "string"
        },
        {
          "internalType": "string",
          "name": "symbol",
          "type": "string"
        },
        {
          "internalType": "uint256",
          "name": "totalSupply",
          "type": "uint256"
        },
        {
          "internalType": "address",
          "name": "initialOwner",
          "type": "address"
        }
      ],
      "stateMutability": "nonpayable",
      "type": "constructor"
    },
    {
      "anonymous": false,
      "inputs": [
        {
          "indexed": true,
          "internalType": "address",
          "name": "owner",
          "type": "address"
        },
        {
          "indexed": true,
          "internalType": "address",
          "name": "spender",
          "type": "address"
        },
        {
          "indexed": false,
          "internalType": "uint256",
          "name": "value",
          "type": "uint256"
        }
      ],
      "name": "Approval",
      "type": "event"
    },
    {
      "anonymous": false,
      "inputs": [
        {
          "indexed": true,
          "internalType": "address",
          "name": "bondingCurve",
          "type": "address"
        }
      ],
      "name": "BondingCurveSet",
      "type": "event"
    },
    {
      "anonymous": false,
      "inputs": [
        {
          "indexed": true,
          "internalType": "address",
          "name": "previousOwner",
          "type": "address"
        },
        {
          "indexed": true,
          "internalType": "address",
          "name": "newOwner",
          "type": "address"
        }
      ],
      "name": "OwnershipTransferred",
      "type": "event"
    },
    {
      "anonymous": false,
      "inputs": [],
      "name": "TradingEnabled",
      "type": "event"
    },
    {
      "anonymous": false,
      "inputs": [
        {
          "indexed": true,
          "internalType": "address",
          "name": "from",
          "type": "address"
        },
        {
          "indexed": true,
          "internalType": "address",
          "name": "to",
          "type": "address"
        },
        {
          "indexed": false,
          "internalType": "uint256",
          "name": "value",
          "type": "uint256"
        }
      ],
      "name": "Transfer",
      "type": "event"
    },
    {
      "inputs": [],
      "name": "INITIAL_SUPPLY",
      "outputs": [
        {
          "internalType": "uint256",
          "name": "",
          "type": "uint256"
        }
      ],
      "stateMutability": "view",
      "type": "function"
    },
    {
      "inputs": [],
      "name": "MAX_SUPPLY",
      "outputs": [
        {
          "internalType": "uint256",
          "name": "",
          "type": "uint256"
        }
      ],
      "stateMutability": "view",
      "type": "function"
    },
    {
      "inputs": [
        {
          "internalType": "address",
          "name": "owner",
          "type": "address"
        },
        {
          "internalType": "address",
          "name": "spender",
          "type": "address"
        }
      ],
      "name": "allowance",
      "outputs": [
        {
          "internalType": "uint256",
          "name": "",
          "type": "uint256"
        }
      ],
      "stateMutability": "view",
      "type": "function"
    },
    {
      "inputs": [
        {
          "internalType": "address",
          "name": "spender",
          "type": "address"
        },
        {
          "internalType": "uint256",
          "name": "amount",
          "type": "uint256"
        }
      ],
      "name": "approve",
      "outputs": [
        {
          "internalType": "bool",
          "name": "",
          "type": "bool"
        }
      ],
      "stateMutability": "nonpayable",
      "type": "function"
    },
    {
      "inputs": [
        {
          "internalType": "address",
          "name": "account",
          "type": "address"
        }
      ],
      "name": "balanceOf",
      "outputs": [
        {
          "internalType": "uint256",
          "name": "",
          "type": "uint256"
        }
      ],
      "stateMutability": "view",
      "type": "function"
    },
    {
      "inputs": [],
      "name": "bondingCurve",
      "outputs": [
        {
          "internalType": "address",
          "name": "",
          "type": "address"
        }
      ],
      "stateMutability": "view",
      "type": "function"
    },
    {
      "inputs": [
        {
          "internalType": "uint256",
          "name": "amount",
          "type": "uint256"
        }
      ],
      "name": "burn",
      "outputs": [],
      "stateMutability": "nonpayable",
      "type": "function"
    },
    {
      "inputs": [],
      "name": "decimals",
      "outputs": [
        {
          "internalType": "uint8",
          "name": "",
          "type": "uint8"
        }
      ],
      "stateMutability": "view",
      "type": "function"
    },
    {
      "inputs": [
        {
          "internalType": "address",
          "name": "spender",
          "type": "address"
        },
        {
          "internalType": "uint256",
          "name": "subtractedValue",
          "type": "uint256"
        }
      ],
      "name": "decreaseAllowance",
      "outputs": [
        {
          "internalType": "bool",
          "name": "",
          "type": "bool"
        }
      ],
      "stateMutability": "nonpayable",
      "type": "function"
    },
    {
      "inputs": [],
      "name": "enableTrading",
      "outputs": [],
      "stateMutability": "nonpayable",
      "type": "function"
    },
    {
      "inputs": [
        {
          "internalType": "address",
          "name": "spender",
          "type": "address"
        },
        {
          "internalType": "uint256",
          "name": "addedValue",
          "type": "uint256"
        }
      ],
      "name": "increaseAllowance",
      "outputs": [
        {
          "internalType": "bool",
          "name": "",
          "type": "bool"
        }
      ],
      "stateMutability": "nonpayable",
      "type": "function"
    },
    {
      "inputs": [
        {
          "internalType": "address",
          "name": "to",
          "type": "address"
        },
        {
          "internalType": "uint256",
          "name": "amount",
          "type": "uint256"
        }
      ],
      "name": "mint",
      "outputs": [],
      "stateMutability": "nonpayable",
      "type": "function"
    },
    {
      "inputs": [],
      "name": "name",
      "outputs": [
        {
          "internalType": "string",
          "name": "",
          "type": "string"
        }
      ],
      "stateMutability": "view",
      "type": "function"
    },
    {
      "inputs": [],
      "name": "owner",
      "outputs": [
        {
          "internalType": "address",
          "name": "",
          "type": "address"
        }
      ],
      "stateMutability": "view",
      "type": "function"
    },
    {
      "inputs": [],
      "name": "renounceOwnership",
      "outputs": [],
      "stateMutability": "nonpayable",
      "type": "function"
    },
    {
      "inputs": [
        {
          "internalType": "address",
          "name": "_bondingCurve",
          "type": "address"
        }
      ],
      "name": "setBondingCurve",
      "outputs": [],
      "stateMutability": "nonpayable",
      "type": "function"
    },
    {
      "inputs": [],
      "name": "symbol",
      "outputs": [
        {
          "internalType": "string",
          "name": "",
          "type": "string"
        }
      ],
      "stateMutability": "view",
      "type": "function"
    },
    {
      "inputs": [],
      "name": "totalSupply",
      "outputs": [
        {
          "internalType": "uint256",
          "name": "",
          "type": "uint256"
        }
      ],
      "stateMutability": "view",
      "type": "function"
    },
    {
      "inputs": [],
      "name": "tradingEnabled",
      "outputs": [
        {
          "internalType": "bool",
          "name": "",
          "type": "bool"
        }
      ],
      "stateMutability": "view",
      "type": "function"
    },
    {
      "inputs": [
        {
          "internalType": "address",
          "name": "to",
          "type": "address"
        },
        {
          "internalType": "uint256",
          "name": "amount",
          "type": "uint256"
        }
      ],
      "name": "transfer",
      "outputs": [
        {
          "internalType": "bool",
          "name": "",
          "type": "bool"
        }
      ],
      "stateMutability": "nonpayable",
      "type": "function"
    },
    {
      "inputs": [
        {
          "internalType": "address",
          "name": "from",
          "type": "address"
        },
        {
          "internalType": "address",
          "name": "to",
          "type": "address"
        },
        {
          "internalType": "uint256",
          "name": "amount",
          "type": "uint256"
        }
      ],
      "name": "transferFrom",
      "outputs": [
        {
          "internalType": "bool",
          "name": "",
          "type": "bool"
        }
      ],
      "stateMutability": "nonpayable",
      "type": "function"
    },
    {
      "inputs": [
        {
          "internalType": "address",
          "name": "newOwner",
          "type": "address"
        }
      ],
      "name": "transferOwnership",
      "outputs": [],
      "stateMutability": "nonpayable",
      "type": "function"
    }
  ],
  "bytecode": "0x60806040526005805460ff60a01b191690553480156200001e57600080fd5b50604051620015ce380380620015ce833981016040819052620000419162000407565b838360036200005183826200052c565b5060046200006082826200052c565b5050506200007d620000776200015d60201b60201c565b62000161565b6b033b2e3c9fd0803ce8000000821115620000df5760405162461bcd60e51b815260206004820152601c60248201527f546f74616c20737570706c792065786365656473206d6178696d756d0000000060448201526064015b60405180910390fd5b6a52b7d2dcc80cd2e40000008210156200013c5760405162461bcd60e51b815260206004820152601a60248201527f546f74616c20737570706c792062656c6f77206d696e696d756d0000000000006044820152606401620000d6565b620001488183620001b3565b620001538162000161565b5050505062000620565b3390565b600580546001600160a01b038381166001600160a01b0319831681179093556040519116919082907f8be0079c531659141344cd1fd0a4f28419497f9722a3daafe3b4186f6b6457e090600090a35050565b6001600160a01b0382166200020b5760405162461bcd60e51b815260206004820152601f60248201527f45524332303a206d696e7420746f20746865207a65726f2061646472657373006044820152606401620000d6565b620002196000838362000284565b80600260008282546200022d9190620005f8565b90915550506001600160a01b038216600081815260208181526040808320805486019055518481527fddf252ad1be2c89b69c2b068fc378daa952ba7f163c4a11628f55a4df523b3ef910160405180910390a35050565b6001600160a01b0383161580620002a257506001600160a01b038216155b15620002ad57505050565b600554600160a01b900460ff1680620002d357506006546001600160a01b038481169116145b80620002ec57506006546001600160a01b038381169116145b6200033a5760405162461bcd60e51b815260206004820152601360248201527f54726164696e67206e6f7420656e61626c6564000000000000000000000000006044820152606401620000d6565b505050565b634e487b7160e01b600052604160045260246000fd5b600082601f8301126200036757600080fd5b81516001600160401b03808211156200038457620003846200033f565b604051601f8301601f19908116603f01168101908282118183101715620003af57620003af6200033f565b8160405283815260209250866020858801011115620003cd57600080fd5b600091505b83821015620003f15785820183015181830184015290820190620003d2565b6000602085830101528094505050505092915050565b600080600080608085870312156200041e57600080fd5b84516001600160401b03808211156200043657600080fd5b620004448883890162000355565b955060208701519150808211156200045b57600080fd5b506200046a8782880162000355565b60408701516060880151919550935090506001600160a01b03811681146200049157600080fd5b939692955090935050565b600181811c90821680620004b157607f821691505b602082108103620004d257634e487b7160e01b600052602260045260246000fd5b50919050565b601f8211156200033a576000816000526020600020601f850160051c81016020861015620005035750805b601f850160051c820191505b8181101562000524578281556001016200050f565b505050505050565b81516001600160401b038111156200054857620005486200033f565b62000560816200055984546200049c565b84620004d8565b602080601f8311600181146200059857600084156200057f5750858301515b600019600386901b1c1916600185901b17855562000524565b600085815260208120601f198616915b82811015620005c957888601518255948401946001909101908401620005a8565b5085821015620005e85787850151600019600388901b60f8161c191681555b5050505050600190811b01905550565b808201808211156200061a57634e487b7160e01b600052601160045260246000fd5b92915050565b610f9e80620006306000396000f3fe608060405234801561001057600080fd5b50600436106101425760003560e01c80634ada218b116100b857806395d89b411161007c57806395d89b41146102a1578063a457c2d7146102a9578063a9059cbb146102bc578063dd62ed3e146102cf578063eff1d50e146102e2578063f2fde38b146102f557600080fd5b80634ada218b1461022f57806370a0823114610243578063715018a61461026c5780638a8c523c146102745780638da5cb5b1461027c57600080fd5b8063313ce5671161010a578063313ce567146101bf57806332cb6b0c146101ce57806339509351146101e157806340c10f19146101f457806342966c681461020957806343ff1fb81461021c57600080fd5b806306fdde0314610147578063095ea7b31461016557806318160ddd1461018857806323b872dd1461019a5780632ff2e9dc146101ad575b600080fd5b61014f610308565b60405161015c9190610dce565b60405180910390f35b610178610173366004610e39565b61039a565b604051901515815260200161015c565b6002545b60405190815260200161015c565b6101786101a8366004610e63565b6103b4565b61018c6a52b7d2dcc80cd2e400000081565b6040516012815260200161015c565b61018c6b033b2e3c9fd0803ce800000081565b6101786101ef366004610e39565b6103d8565b610207610202366004610e39565b6103fa565b005b610207610217366004610e9f565b610484565b61020761022a366004610eb8565b610491565b60055461017890600160a01b900460ff1681565b61018c610251366004610eb8565b6001600160a01b031660009081526020819052604090205490565b610207610545565b610207610559565b6005546001600160a01b03165b6040516001600160a01b03909116815260200161015c565b61014f6105ef565b6101786102b7366004610e39565b6105fe565b6101786102ca366004610e39565b610679565b61018c6102dd366004610eda565b610687565b600654610289906001600160a01b031681565b610207610303366004610eb8565b6106b2565b60606003805461031790610f0d565b80601f016020809104026020016040519081016040528092919081815260200182805461034390610f0d565b80156103905780601f1061036557610100808354040283529160200191610390565b820191906000526020600020905b81548152906001019060200180831161037357829003601f168201915b5050505050905090565b6000336103a8818585610728565b60019150505b92915050565b6000336103c285828561084d565b6103cd8585856108c7565b506001949350505050565b6000336103a88185856103eb8383610687565b6103f59190610f47565b610728565b610402610a76565b6b033b2e3c9fd0803ce80000008161041960025490565b6104239190610f47565b11156104765760405162461bcd60e51b815260206004820152601c60248201527f4d696e7420776f756c6420657863656564206d617820737570706c790000000060448201526064015b60405180910390fd5b6104808282610ad0565b5050565b61048e3382610b9b565b50565b610499610a76565b6001600160a01b0381166104fb5760405162461bcd60e51b8152602060048201526024808201527f426f6e64696e672063757276652063616e6e6f74206265207a65726f206164646044820152637265737360e01b606482015260840161046d565b600680546001600160a01b0319166001600160a01b0383169081179091556040517f9727cfa482a12f4e6e53820c476bc0cd8214e4ed5784a846ad9832ad035f8a5590600090a250565b61054d610a76565b6105576000610cd6565b565b610561610a76565b6006546001600160a01b03166105b15760405162461bcd60e51b8152602060048201526015602482015274109bdb991a5b99c818dd5c9d99481b9bdd081cd95d605a1b604482015260640161046d565b6005805460ff60a01b1916600160a01b1790556040517f799663458a5ef2936f7fa0c99b3336c69c25890f82974f04e811e5bb359186c790600090a1565b60606004805461031790610f0d565b6000338161060c8286610687565b90508381101561066c5760405162461bcd60e51b815260206004820152602560248201527f45524332303a2064656372656173656420616c6c6f77616e63652062656c6f77604482015264207a65726f60d81b606482015260840161046d565b6103cd8286868403610728565b6000336103a88185856108c7565b6001600160a01b03918216600090815260016020908152604080832093909416825291909152205490565b6106ba610a76565b6001600160a01b03811661071f5760405162461bcd60e51b815260206004820152602660248201527f4f776e61626c653a206e6577206f776e657220697320746865207a65726f206160448201526564647265737360d01b606482015260840161046d565b61048e81610cd6565b6001600160a01b03831661078a5760405162461bcd60e51b8152602060048201526024808201527f45524332303a20617070726f76652066726f6d20746865207a65726f206164646044820152637265737360e01b606482015260840161046d565b6001600160a01b0382166107eb5760405162461bcd60e51b815260206004820152602260248201527f45524332303a20617070726f766520746f20746865207a65726f206164647265604482015261737360f01b606482015260840161046d565b6001600160a01b0383811660008181526001602090815260408083209487168084529482529182902085905590518481527f8c5be1e5ebec7d5bd14f71427d1e84f3dd0314c0f7b2291e5b200ac8c7c3b92591015b60405180910390a3505050565b60006108598484610687565b905060001981146108c157818110156108b45760405162461bcd60e51b815260206004820152601d60248201527f45524332303a20696e73756666696369656e7420616c6c6f77616e6365000000604482015260640161046d565b6108c18484848403610728565b50505050565b6001600160a01b03831661092b5760405162461bcd60e51b815260206004820152602560248201527f45524332303a207472616e736665722066726f6d20746865207a65726f206164604482015264647265737360d81b606482015260840161046d565b6001600160a01b03821661098d5760405162461bcd60e51b815260206004820152602360248201527f45524332303a207472616e7366657220746f20746865207a65726f206164647260448201526265737360e81b606482015260840161046d565b610998838383610d28565b6001600160a01b03831660009081526020819052604090205481811015610a105760405162461bcd60e51b815260206004820152602660248201527f45524332303a207472616e7366657220616d6f756e7420657863656564732062604482015265616c616e636560d01b606482015260840161046d565b6001600160a01b03848116600081815260208181526040808320878703905593871680835291849020805487019055925185815290927fddf252ad1be2c89b69c2b068fc378daa952ba7f163c4a11628f55a4df523b3ef910160405180910390a36108c1565b6005546001600160a01b031633146105575760405162461bcd60e51b815260206004820181905260248201527f4f776e61626c653a2063616c6c6572206973206e6f7420746865206f776e6572604482015260640161046d565b6001600160a01b038216610b265760405162461bcd60e51b815260206004820152601f60248201527f45524332303a206d696e7420746f20746865207a65726f206164647265737300604482015260640161046d565b610b3260008383610d28565b8060026000828254610b449190610f47565b90915550506001600160a01b038216600081815260208181526040808320805486019055518481527fddf252ad1be2c89b69c2b068fc378daa952ba7f163c4a11628f55a4df523b3ef910160405180910390a35050565b6001600160a01b038216610bfb5760405162461bcd60e51b815260206004820152602160248201527f45524332303a206275726e2066726f6d20746865207a65726f206164647265736044820152607360f81b606482015260840161046d565b610c0782600083610d28565b6001600160a01b03821660009081526020819052604090205481811015610c7b5760405162461bcd60e51b815260206004820152602260248201527f45524332303a206275726e20616d6f756e7420657863656564732062616c616e604482015261636560f01b606482015260840161046d565b6001600160a01b0383166000818152602081815260408083208686039055600280548790039055518581529192917fddf252ad1be2c89b69c2b068fc378daa952ba7f163c4a11628f55a4df523b3ef9101610840565b505050565b600580546001600160a01b038381166001600160a01b0319831681179093556040519116919082907f8be0079c531659141344cd1fd0a4f28419497f9722a3daafe3b4186f6b6457e090600090a35050565b6001600160a01b0383161580610d4557506001600160a01b038216155b15610d4f57505050565b600554600160a01b900460ff1680610d7457506006546001600160a01b038481169116145b80610d8c57506006546001600160a01b038381169116145b610cd15760405162461bcd60e51b8152602060048201526013602482015272151c98591a5b99c81b9bdd08195b98589b1959606a1b604482015260640161046d565b60006020808352835180602085015260005b81811015610dfc57858101830151858201604001528201610de0565b506000604082860101526040601f19601f8301168501019250505092915050565b80356001600160a01b0381168114610e3457600080fd5b919050565b60008060408385031215610e4c57600080fd5b610e5583610e1d565b946020939093013593505050565b600080600060608486031215610e7857600080fd5b610e8184610e1d565b9250610e8f60208501610e1d565b9150604084013590509250925092565b600060208284031215610eb157600080fd5b5035919050565b600060208284031215610eca57600080fd5b610ed382610e1d565b9392505050565b60008060408385031215610eed57600080fd5b610ef683610e1d565b9150610f0460208401610e1d565b90509250929050565b600181811c90821680610f2157607f821691505b602082108103610f4157634e487b7160e01b600052602260045260246000fd5b50919050565b808201808211156103ae57634e487b7160e01b600052601160045260246000fdfea264697066735822122021fab01f0c58c59e677e79a0a52c94cb30ce5be66012e29fc33fc455f498dcb164736f6c63430008180033",
  "linkReferences": {},
  "deployedLinkReferences": {}
}