{
  "_format": "hh-sol-artifact-1",
  "contractName": "BondingCurve",
  "sourceName": "contracts/BondingCurve.sol",
  "abi": [
    {
      "inputs": [
        {
          "internalType": "address",
          "name": "_token",
          "type": "address"
        },
        {
          "internalType": "uint256",
          "name": "_basePrice",
          "type": "uint256"
        },
        {
          "internalType": "uint256",
          "name": "_slope",
          "type": "uint256"
        },
        {
          "internalType": "uint256",
          "name": "_protocolFeeRate",
          "type": "uint256"
        },
        {
          "internalType": "address",
          "name": "_treasury",
          "type": "address"
        }
      ],
      "stateMutability": "nonpayable",
      "type": "constructor"
    },
    {
      "anonymous": false,
      "inputs": [
        {
          "indexed": true,
          "internalType": "address",
          "name": "previousOwner",
          "type": "address"
        },
        {
          "indexed": true,
          "internalType": "address",
          "name": "newOwner",
          "type": "address"
        }
      ],
      "name": "OwnershipTransferred",
      "type": "event"
    },
    {
      "anonymous": false,
      "inputs": [
        {
          "indexed": true,
          "internalType": "address",
          "name": "buyer",
          "type": "address"
        },
        {
          "indexed": false,
          "internalType": "uint256",
          "name": "tokenAmount",
          "type": "uint256"
        },
        {
          "indexed": false,
          "internalType": "uint256",
          "name": "ethAmount",
          "type": "uint256"
        },
        {
          "indexed": false,
          "internalType": "uint256",
          "name": "price",
          "type": "uint256"
        }
      ],
      "name": "TokensBought",
      "type": "event"
    },
    {
      "anonymous": false,
      "inputs": [
        {
          "indexed": true,
          "internalType": "address",
          "name": "seller",
          "type": "address"
        },
        {
          "indexed": false,
          "internalType": "uint256",
          "name": "tokenAmount",
          "type": "uint256"
        },
        {
          "indexed": false,
          "internalType": "uint256",
          "name": "ethAmount",
          "type": "uint256"
        },
        {
          "indexed": false,
          "internalType": "uint256",
          "name": "price",
          "type": "uint256"
        }
      ],
      "name": "TokensSold",
      "type": "event"
    },
    {
      "anonymous": false,
      "inputs": [],
      "name": "TradingPaused",
      "type": "event"
    },
    {
      "anonymous": false,
      "inputs": [],
      "name": "TradingResumed",
      "type": "event"
    },
    {
      "inputs": [],
      "name": "basePrice",
      "outputs": [
        {
          "internalType": "uint256",
          "name": "",
          "type": "uint256"
        }
      ],
      "stateMutability": "view",
      "type": "function"
    },
    {
      "inputs": [],
      "name": "buyTokens",
      "outputs": [],
      "stateMutability": "payable",
      "type": "function"
    },
    {
      "inputs": [
        {
          "internalType": "uint256",
          "name": "tokenAmount",
          "type": "uint256"
        }
      ],
      "name": "getBuyPrice",
      "outputs": [
        {
          "internalType": "uint256",
          "name": "",
          "type": "uint256"
        }
      ],
      "stateMutability": "view",
      "type": "function"
    },
    {
      "inputs": [],
      "name": "getCurrentPrice",
      "outputs": [
        {
          "internalType": "uint256",
          "name": "",
          "type": "uint256"
        }
      ],
      "stateMutability": "view",
      "type": "function"
    },
    {
      "inputs": [
        {
          "internalType": "uint256",
          "name": "tokenAmount",
          "type": "uint256"
        }
      ],
      "name": "getETHAmountForTokens",
      "outputs": [
        {
          "internalType": "uint256",
          "name": "",
          "type": "uint256"
        }
      ],
      "stateMutability": "view",
      "type": "function"
    },
    {
      "inputs": [
        {
          "internalType": "uint256",
          "name": "tokenAmount",
          "type": "uint256"
        }
      ],
      "name": "getSellPrice",
      "outputs": [
        {
          "internalType": "uint256",
          "name": "",
          "type": "uint256"
        }
      ],
      "stateMutability": "view",
      "type": "function"
    },
    {
      "inputs": [
        {
          "internalType": "uint256",
          "name": "ethAmount",
          "type": "uint256"
        }
      ],
      "name": "getTokenAmountForETH",
      "outputs": [
        {
          "internalType": "uint256",
          "name": "",
          "type": "uint256"
        }
      ],
      "stateMutability": "view",
      "type": "function"
    },
    {
      "inputs": [],
      "name": "owner",
      "outputs": [
        {
          "internalType": "address",
          "name": "",
          "type": "address"
        }
      ],
      "stateMutability": "view",
      "type": "function"
    },
    {
      "inputs": [],
      "name": "pauseTrading",
      "outputs": [],
      "stateMutability": "nonpayable",
      "type": "function"
    },
    {
      "inputs": [],
      "name": "protocolFeeRate",
      "outputs": [
        {
          "internalType": "uint256",
          "name": "",
          "type": "uint256"
        }
      ],
      "stateMutability": "view",
      "type": "function"
    },
    {
      "inputs": [],
      "name": "renounceOwnership",
      "outputs": [],
      "stateMutability": "nonpayable",
      "type": "function"
    },
    {
      "inputs": [],
      "name": "resumeTrading",
      "outputs": [],
      "stateMutability": "nonpayable",
      "type": "function"
    },
    {
      "inputs": [
        {
          "internalType": "uint256",
          "name": "tokenAmount",
          "type": "uint256"
        }
      ],
      "name": "sellTokens",
      "outputs": [],
      "stateMutability": "nonpayable",
      "type": "function"
    },
    {
      "inputs": [],
      "name": "slope",
      "outputs": [
        {
          "internalType": "uint256",
          "name": "",
          "type": "uint256"
        }
      ],
      "stateMutability": "view",
      "type": "function"
    },
    {
      "inputs": [],
      "name": "token",
      "outputs": [
        {
          "internalType": "contract IERC20",
          "name": "",
          "type": "address"
        }
      ],
      "stateMutability": "view",
      "type": "function"
    },
    {
      "inputs": [],
      "name": "totalRaised",
      "outputs": [
        {
          "internalType": "uint256",
          "name": "",
          "type": "uint256"
        }
      ],
      "stateMutability": "view",
      "type": "function"
    },
    {
      "inputs": [],
      "name": "totalSold",
      "outputs": [
        {
          "internalType": "uint256",
          "name": "",
          "type": "uint256"
        }
      ],
      "stateMutability": "view",
      "type": "function"
    },
    {
      "inputs": [],
      "name": "tradingPaused",
      "outputs": [
        {
          "internalType": "bool",
          "name": "",
          "type": "bool"
        }
      ],
      "stateMutability": "view",
      "type": "function"
    },
    {
      "inputs": [
        {
          "internalType": "address",
          "name": "newOwner",
          "type": "address"
        }
      ],
      "name": "transferOwnership",
      "outputs": [],
      "stateMutability": "nonpayable",
      "type": "function"
    },
    {
      "inputs": [],
      "name": "treasury",
      "outputs": [
        {
          "internalType": "address",
          "name": "",
          "type": "address"
        }
      ],
      "stateMutability": "view",
      "type": "function"
    },
    {
      "inputs": [],
      "name": "withdrawETH",
      "outputs": [],
      "stateMutability": "nonpayable",
      "type": "function"
    },
    {
      "inputs": [],
      "name": "withdrawTokens",
      "outputs": [],
      "stateMutability": "nonpayable",
      "type": "function"
    },
    {
      "stateMutability": "payable",
      "type": "receive"
    }
  ],
  "bytecode": "0x6101206040526004805460ff191690553480156200001c57600080fd5b506040516200133f3803806200133f8339810160408190526200003f91620000f4565b6200004a3362000087565b600180556001600160a01b0380861660805260c085905260e0849052610100839052811660a0526200007c3362000087565b505050505062000149565b600080546001600160a01b038381166001600160a01b0319831681178455604051919092169283917f8be0079c531659141344cd1fd0a4f28419497f9722a3daafe3b4186f6b6457e09190a35050565b80516001600160a01b0381168114620000ef57600080fd5b919050565b600080600080600060a086880312156200010d57600080fd5b6200011886620000d7565b94506020860151935060408601519250606086015191506200013d60808701620000d7565b90509295509295909350565b60805160a05160c05160e0516101005161115d620001e260003960008181610200015281816106e30152610c2c0152600081816102b50152610e640152600081816103480152610ea00152600081816102340152818161082b0152610d400152600081816103ce0152818161054101528181610774015281816108f4015281816109b301528181610b600152610cb7015261115d6000f3fe6080604052600436106101395760003560e01c80638d8f2adb116100ab578063c7876ea41161006f578063c7876ea414610336578063d0febe4c1461036a578063e086e5ec14610372578063eb91d37e14610387578063f2fde38b1461039c578063fc0c546a146103bc57600080fd5b80638d8f2adb146102d75780638da5cb5b146102ec5780639106d7ba1461030a578063ba730e531461018f578063c5c4744c1461032057600080fd5b806353e23e2e116100fd57806353e23e2e146101c457806358f85880146101ee57806361d027b3146102225780636c11bcd31461026e578063715018a61461028e57806383caf275146102a357600080fd5b80630694db1e14610145578063082392101461015c57806308d4db141461018f5780630fa442121461018f5780631031e36e146101af57600080fd5b3661014057005b600080fd5b34801561015157600080fd5b5061015a6103f0565b005b34801561016857600080fd5b5061017c610177366004610fec565b61042d565b6040519081526020015b60405180910390f35b34801561019b57600080fd5b5061017c6101aa366004610fec565b61045e565b3480156101bb57600080fd5b5061015a61047e565b3480156101d057600080fd5b506004546101de9060ff1681565b6040519015158152602001610186565b3480156101fa57600080fd5b5061017c7f000000000000000000000000000000000000000000000000000000000000000081565b34801561022e57600080fd5b506102567f000000000000000000000000000000000000000000000000000000000000000081565b6040516001600160a01b039091168152602001610186565b34801561027a57600080fd5b5061015a610289366004610fec565b6104be565b34801561029a57600080fd5b5061015a6108c0565b3480156102af57600080fd5b5061017c7f000000000000000000000000000000000000000000000000000000000000000081565b3480156102e357600080fd5b5061015a6108d4565b3480156102f857600080fd5b506000546001600160a01b0316610256565b34801561031657600080fd5b5061017c60025481565b34801561032c57600080fd5b5061017c60035481565b34801561034257600080fd5b5061017c7f000000000000000000000000000000000000000000000000000000000000000081565b61015a610a67565b34801561037e57600080fd5b5061015a610dd3565b34801561039357600080fd5b5061017c610e57565b3480156103a857600080fd5b5061015a6103b7366004611005565b610ec9565b3480156103c857600080fd5b506102567f000000000000000000000000000000000000000000000000000000000000000081565b6103f8610f42565b6004805460ff191690556040517f0c855aee6ba0b54704edf9fa3d2172dbae0a1d765e86020a8f9918fdac6b25d790600090a1565b600080610438610e57565b90508061044d84670de0b6b3a7640000611044565b6104579190611061565b9392505050565b600080610469610e57565b9050670de0b6b3a764000061044d8285611044565b610486610f42565b6004805460ff191660011790556040517f02b874a66f7edefaaca8e06ecdb0825247542b983cc7c499a3d7f1bb34e7272890600090a1565b60045460ff161561050a5760405162461bcd60e51b8152602060048201526011602482015270151c98591a5b99c81a5cc81c185d5cd959607a1b60448201526064015b60405180910390fd5b6000811161052a5760405162461bcd60e51b815260040161050190611083565b6040516370a0823160e01b815233600482015281907f00000000000000000000000000000000000000000000000000000000000000006001600160a01b0316906370a0823190602401602060405180830381865afa158015610590573d6000803e3d6000fd5b505050506040513d601f19601f820116820180604052508101906105b491906110c6565b10156106025760405162461bcd60e51b815260206004820152601a60248201527f496e73756666696369656e7420746f6b656e2062616c616e63650000000000006044820152606401610501565b600061060c610e57565b90506000670de0b6b3a76400006106238385611044565b61062d9190611061565b9050600081116106895760405162461bcd60e51b815260206004820152602160248201527f45544820616d6f756e74206d7573742062652067726561746572207468616e206044820152600360fc1b6064820152608401610501565b804710156106d95760405162461bcd60e51b815260206004820152601860248201527f496e73756666696369656e74204554482062616c616e636500000000000000006044820152606401610501565b60006127106107087f000000000000000000000000000000000000000000000000000000000000000084611044565b6107129190611061565b9050600061072082846110df565b9050846002600082825461073491906110df565b92505081905550806003600082825461074d91906110df565b90915550506040516323b872dd60e01b8152336004820152306024820152604481018690527f00000000000000000000000000000000000000000000000000000000000000006001600160a01b0316906323b872dd906064016020604051808303816000875af11580156107c5573d6000803e3d6000fd5b505050506040513d601f19601f820116820180604052508101906107e991906110f2565b50604051339082156108fc029083906000818181858888f19350505050158015610817573d6000803e3d6000fd5b508115610876576040516001600160a01b037f0000000000000000000000000000000000000000000000000000000000000000169083156108fc029084906000818181858888f19350505050158015610874573d6000803e3d6000fd5b505b604080518681526020810185905290810185905233907f6db63bebf1e6540277744df32846ebdb98385b1a73f2d5de49b28348add63f509060600160405180910390a25050505050565b6108c8610f42565b6108d26000610f9c565b565b6108dc610f42565b6040516370a0823160e01b81523060048201526000907f00000000000000000000000000000000000000000000000000000000000000006001600160a01b0316906370a0823190602401602060405180830381865afa158015610943573d6000803e3d6000fd5b505050506040513d601f19601f8201168201806040525081019061096791906110c6565b9050600081116109b15760405162461bcd60e51b81526020600482015260156024820152744e6f20746f6b656e7320746f20776974686472617760581b6044820152606401610501565b7f00000000000000000000000000000000000000000000000000000000000000006001600160a01b031663a9059cbb6109f26000546001600160a01b031690565b6040516001600160e01b031960e084901b1681526001600160a01b039091166004820152602481018490526044016020604051808303816000875af1158015610a3f573d6000803e3d6000fd5b505050506040513d601f19601f82011682018060405250810190610a6391906110f2565b5050565b60045460ff1615610aae5760405162461bcd60e51b8152602060048201526011602482015270151c98591a5b99c81a5cc81c185d5cd959607a1b6044820152606401610501565b60003411610afe5760405162461bcd60e51b815260206004820152601b60248201527f4d7573742073656e642045544820746f2062757920746f6b656e7300000000006044820152606401610501565b6000610b08610e57565b9050600081610b1f34670de0b6b3a7640000611044565b610b299190611061565b905060008111610b4b5760405162461bcd60e51b815260040161050190611083565b6040516370a0823160e01b81523060048201527f00000000000000000000000000000000000000000000000000000000000000006001600160a01b0316906370a0823190602401602060405180830381865afa158015610baf573d6000803e3d6000fd5b505050506040513d601f19601f82011682018060405250810190610bd391906110c6565b811115610c225760405162461bcd60e51b815260206004820152601960248201527f496e73756666696369656e7420746f6b656e20737570706c79000000000000006044820152606401610501565b6000612710610c517f000000000000000000000000000000000000000000000000000000000000000034611044565b610c5b9190611061565b90506000610c6982346110df565b90508260026000828254610c7d9190611114565b925050819055508060036000828254610c969190611114565b909155505060405163a9059cbb60e01b8152336004820152602481018490527f00000000000000000000000000000000000000000000000000000000000000006001600160a01b03169063a9059cbb906044016020604051808303816000875af1158015610d08573d6000803e3d6000fd5b505050506040513d601f19601f82011682018060405250810190610d2c91906110f2565b508115610d8b576040516001600160a01b037f0000000000000000000000000000000000000000000000000000000000000000169083156108fc029084906000818181858888f19350505050158015610d89573d6000803e3d6000fd5b505b6040805184815234602082015290810185905233907f22f6af6e13430e3e7b6418d01e6a48c1fbce5e8cb1698901fc95134b4b1c58ad9060600160405180910390a250505050565b610ddb610f42565b4780610e1e5760405162461bcd60e51b81526020600482015260126024820152714e6f2045544820746f20776974686472617760701b6044820152606401610501565b600080546040516001600160a01b039091169183156108fc02918491818181858888f19350505050158015610a63573d6000803e3d6000fd5b6000670de0b6b3a76400007f0000000000000000000000000000000000000000000000000000000000000000600254610e909190611044565b610e9a9190611061565b610ec4907f0000000000000000000000000000000000000000000000000000000000000000611114565b905090565b610ed1610f42565b6001600160a01b038116610f365760405162461bcd60e51b815260206004820152602660248201527f4f776e61626c653a206e6577206f776e657220697320746865207a65726f206160448201526564647265737360d01b6064820152608401610501565b610f3f81610f9c565b50565b6000546001600160a01b031633146108d25760405162461bcd60e51b815260206004820181905260248201527f4f776e61626c653a2063616c6c6572206973206e6f7420746865206f776e65726044820152606401610501565b600080546001600160a01b038381166001600160a01b0319831681178455604051919092169283917f8be0079c531659141344cd1fd0a4f28419497f9722a3daafe3b4186f6b6457e09190a35050565b600060208284031215610ffe57600080fd5b5035919050565b60006020828403121561101757600080fd5b81356001600160a01b038116811461045757600080fd5b634e487b7160e01b600052601160045260246000fd5b808202811582820484141761105b5761105b61102e565b92915050565b60008261107e57634e487b7160e01b600052601260045260246000fd5b500490565b60208082526023908201527f546f6b656e20616d6f756e74206d75737420626520677265617465722074686160408201526206e20360ec1b606082015260800190565b6000602082840312156110d857600080fd5b5051919050565b8181038181111561105b5761105b61102e565b60006020828403121561110457600080fd5b8151801515811461045757600080fd5b8082018082111561105b5761105b61102e56fea264697066735822122049eb6105394780e77be957f80aa0bcc1ec40deaba8eeed6359f16389a6606a6d64736f6c63430008180033",
  "linkReferences": {},
  "deployedLinkReferences": {}
}